{
  "_format": "hh-sol-artifact-1",
  "contractName": "BorrowYourCar",
  "sourceName": "contracts/BorrowYourCar.sol",
  "abi": [
    {
      "inputs": [],
      "stateMutability": "nonpayable",
      "type": "constructor"
    },
    {
      "inputs": [
        {
          "internalType": "address",
          "name": "sender",
          "type": "address"
        },
        {
          "internalType": "uint256",
          "name": "tokenId",
          "type": "uint256"
        },
        {
          "internalType": "address",
          "name": "owner",
          "type": "address"
        }
      ],
      "name": "ERC721IncorrectOwner",
      "type": "error"
    },
    {
      "inputs": [
        {
          "internalType": "address",
          "name": "operator",
          "type": "address"
        },
        {
          "internalType": "uint256",
          "name": "tokenId",
          "type": "uint256"
        }
      ],
      "name": "ERC721InsufficientApproval",
      "type": "error"
    },
    {
      "inputs": [
        {
          "internalType": "address",
          "name": "approver",
          "type": "address"
        }
      ],
      "name": "ERC721InvalidApprover",
      "type": "error"
    },
    {
      "inputs": [
        {
          "internalType": "address",
          "name": "operator",
          "type": "address"
        }
      ],
      "name": "ERC721InvalidOperator",
      "type": "error"
    },
    {
      "inputs": [
        {
          "internalType": "address",
          "name": "owner",
          "type": "address"
        }
      ],
      "name": "ERC721InvalidOwner",
      "type": "error"
    },
    {
      "inputs": [
        {
          "internalType": "address",
          "name": "receiver",
          "type": "address"
        }
      ],
      "name": "ERC721InvalidReceiver",
      "type": "error"
    },
    {
      "inputs": [
        {
          "internalType": "address",
          "name": "sender",
          "type": "address"
        }
      ],
      "name": "ERC721InvalidSender",
      "type": "error"
    },
    {
      "inputs": [
        {
          "internalType": "uint256",
          "name": "tokenId",
          "type": "uint256"
        }
      ],
      "name": "ERC721NonexistentToken",
      "type": "error"
    },
    {
      "anonymous": false,
      "inputs": [
        {
          "indexed": true,
          "internalType": "address",
          "name": "owner",
          "type": "address"
        },
        {
          "indexed": true,
          "internalType": "address",
          "name": "approved",
          "type": "address"
        },
        {
          "indexed": true,
          "internalType": "uint256",
          "name": "tokenId",
          "type": "uint256"
        }
      ],
      "name": "Approval",
      "type": "event"
    },
    {
      "anonymous": false,
      "inputs": [
        {
          "indexed": true,
          "internalType": "address",
          "name": "owner",
          "type": "address"
        },
        {
          "indexed": true,
          "internalType": "address",
          "name": "operator",
          "type": "address"
        },
        {
          "indexed": false,
          "internalType": "bool",
          "name": "approved",
          "type": "bool"
        }
      ],
      "name": "ApprovalForAll",
      "type": "event"
    },
    {
      "anonymous": false,
      "inputs": [
        {
          "indexed": true,
          "internalType": "address",
          "name": "from",
          "type": "address"
        },
        {
          "indexed": true,
          "internalType": "address",
          "name": "to",
          "type": "address"
        },
        {
          "indexed": true,
          "internalType": "uint256",
          "name": "tokenId",
          "type": "uint256"
        }
      ],
      "name": "Transfer",
      "type": "event"
    },
    {
      "inputs": [],
      "name": "AddCar",
      "outputs": [],
      "stateMutability": "nonpayable",
      "type": "function"
    },
    {
      "inputs": [
        {
          "internalType": "uint256",
          "name": "x",
          "type": "uint256"
        }
      ],
      "name": "BorrowCar",
      "outputs": [],
      "stateMutability": "nonpayable",
      "type": "function"
    },
    {
      "inputs": [
        {
          "internalType": "uint256",
          "name": "x",
          "type": "uint256"
        }
      ],
      "name": "BorrowExist",
      "outputs": [
        {
          "internalType": "bool",
          "name": "",
          "type": "bool"
        }
      ],
      "stateMutability": "view",
      "type": "function"
    },
    {
      "inputs": [
        {
          "internalType": "uint256",
          "name": "x",
          "type": "uint256"
        }
      ],
      "name": "CarBorrower",
      "outputs": [
        {
          "internalType": "address",
          "name": "",
          "type": "address"
        },
        {
          "internalType": "uint256",
          "name": "",
          "type": "uint256"
        }
      ],
      "stateMutability": "view",
      "type": "function"
    },
    {
      "inputs": [
        {
          "internalType": "uint256",
          "name": "x",
          "type": "uint256"
        }
      ],
      "name": "CarOwner",
      "outputs": [
        {
          "internalType": "address",
          "name": "",
          "type": "address"
        }
      ],
      "stateMutability": "view",
      "type": "function"
    },
    {
      "inputs": [],
      "name": "Carcnt",
      "outputs": [
        {
          "internalType": "uint256",
          "name": "",
          "type": "uint256"
        }
      ],
      "stateMutability": "view",
      "type": "function"
    },
    {
      "inputs": [
        {
          "internalType": "uint256",
          "name": "x",
          "type": "uint256"
        }
      ],
      "name": "Exist",
      "outputs": [
        {
          "internalType": "bool",
          "name": "",
          "type": "bool"
        }
      ],
      "stateMutability": "view",
      "type": "function"
    },
    {
      "inputs": [],
      "name": "GetAvailableCarList",
      "outputs": [
        {
          "internalType": "uint256[]",
          "name": "",
          "type": "uint256[]"
        }
      ],
      "stateMutability": "view",
      "type": "function"
    },
    {
      "inputs": [],
      "name": "GetMyList",
      "outputs": [
        {
          "internalType": "uint256[]",
          "name": "",
          "type": "uint256[]"
        }
      ],
      "stateMutability": "view",
      "type": "function"
    },
    {
      "inputs": [],
      "name": "TotalCar",
      "outputs": [
        {
          "internalType": "uint256",
          "name": "",
          "type": "uint256"
        }
      ],
      "stateMutability": "view",
      "type": "function"
    },
    {
      "inputs": [
        {
          "internalType": "address",
          "name": "to",
          "type": "address"
        },
        {
          "internalType": "uint256",
          "name": "tokenId",
          "type": "uint256"
        }
      ],
      "name": "approve",
      "outputs": [],
      "stateMutability": "nonpayable",
      "type": "function"
    },
    {
      "inputs": [
        {
          "internalType": "address",
          "name": "owner",
          "type": "address"
        }
      ],
      "name": "balanceOf",
      "outputs": [
        {
          "internalType": "uint256",
          "name": "",
          "type": "uint256"
        }
      ],
      "stateMutability": "view",
      "type": "function"
    },
    {
      "inputs": [],
      "name": "borrowATime",
      "outputs": [
        {
          "internalType": "uint256",
          "name": "",
          "type": "uint256"
        }
      ],
      "stateMutability": "view",
      "type": "function"
    },
    {
      "inputs": [
        {
          "internalType": "uint256",
          "name": "",
          "type": "uint256"
        }
      ],
      "name": "cars",
      "outputs": [
        {
          "internalType": "address",
          "name": "owner",
          "type": "address"
        },
        {
          "internalType": "address",
          "name": "borrower",
          "type": "address"
        },
        {
          "internalType": "uint256",
          "name": "borrowTime",
          "type": "uint256"
        }
      ],
      "stateMutability": "view",
      "type": "function"
    },
    {
      "inputs": [
        {
          "internalType": "uint256",
          "name": "tokenId",
          "type": "uint256"
        }
      ],
      "name": "getApproved",
      "outputs": [
        {
          "internalType": "address",
          "name": "",
          "type": "address"
        }
      ],
      "stateMutability": "view",
      "type": "function"
    },
    {
      "inputs": [
        {
          "internalType": "address",
          "name": "owner",
          "type": "address"
        },
        {
          "internalType": "address",
          "name": "operator",
          "type": "address"
        }
      ],
      "name": "isApprovedForAll",
      "outputs": [
        {
          "internalType": "bool",
          "name": "",
          "type": "bool"
        }
      ],
      "stateMutability": "view",
      "type": "function"
    },
    {
      "inputs": [],
      "name": "myERC20",
      "outputs": [
        {
          "internalType": "contract MyERC20",
          "name": "",
          "type": "address"
        }
      ],
      "stateMutability": "view",
      "type": "function"
    },
    {
      "inputs": [],
      "name": "name",
      "outputs": [
        {
          "internalType": "string",
          "name": "",
          "type": "string"
        }
      ],
      "stateMutability": "view",
      "type": "function"
    },
    {
      "inputs": [
        {
          "internalType": "uint256",
          "name": "tokenId",
          "type": "uint256"
        }
      ],
      "name": "ownerOf",
      "outputs": [
        {
          "internalType": "address",
          "name": "",
          "type": "address"
        }
      ],
      "stateMutability": "view",
      "type": "function"
    },
    {
      "inputs": [
        {
          "internalType": "uint256",
          "name": "x",
          "type": "uint256"
        }
      ],
      "name": "returnCar",
      "outputs": [],
      "stateMutability": "nonpayable",
      "type": "function"
    },
    {
      "inputs": [
        {
          "internalType": "address",
          "name": "from",
          "type": "address"
        },
        {
          "internalType": "address",
          "name": "to",
          "type": "address"
        },
        {
          "internalType": "uint256",
          "name": "tokenId",
          "type": "uint256"
        }
      ],
      "name": "safeTransferFrom",
      "outputs": [],
      "stateMutability": "nonpayable",
      "type": "function"
    },
    {
      "inputs": [
        {
          "internalType": "address",
          "name": "from",
          "type": "address"
        },
        {
          "internalType": "address",
          "name": "to",
          "type": "address"
        },
        {
          "internalType": "uint256",
          "name": "tokenId",
          "type": "uint256"
        },
        {
          "internalType": "bytes",
          "name": "data",
          "type": "bytes"
        }
      ],
      "name": "safeTransferFrom",
      "outputs": [],
      "stateMutability": "nonpayable",
      "type": "function"
    },
    {
      "inputs": [
        {
          "internalType": "address",
          "name": "operator",
          "type": "address"
        },
        {
          "internalType": "bool",
          "name": "approved",
          "type": "bool"
        }
      ],
      "name": "setApprovalForAll",
      "outputs": [],
      "stateMutability": "nonpayable",
      "type": "function"
    },
    {
      "inputs": [
        {
          "internalType": "bytes4",
          "name": "interfaceId",
          "type": "bytes4"
        }
      ],
      "name": "supportsInterface",
      "outputs": [
        {
          "internalType": "bool",
          "name": "",
          "type": "bool"
        }
      ],
      "stateMutability": "view",
      "type": "function"
    },
    {
      "inputs": [],
      "name": "symbol",
      "outputs": [
        {
          "internalType": "string",
          "name": "",
          "type": "string"
        }
      ],
      "stateMutability": "view",
      "type": "function"
    },
    {
      "inputs": [
        {
          "internalType": "uint256",
          "name": "tokenId",
          "type": "uint256"
        }
      ],
      "name": "tokenURI",
      "outputs": [
        {
          "internalType": "string",
          "name": "",
          "type": "string"
        }
      ],
      "stateMutability": "view",
      "type": "function"
    },
    {
      "inputs": [
        {
          "internalType": "address",
          "name": "from",
          "type": "address"
        },
        {
          "internalType": "address",
          "name": "to",
          "type": "address"
        },
        {
          "internalType": "uint256",
          "name": "tokenId",
          "type": "uint256"
        }
      ],
      "name": "transferFrom",
      "outputs": [],
      "stateMutability": "nonpayable",
      "type": "function"
    }
  ],
  "bytecode": "0x6080604052603c6009553480156200001657600080fd5b506040518060400160405280600381526020017f43415200000000000000000000000000000000000000000000000000000000008152506040518060400160405280600281526020017f4a460000000000000000000000000000000000000000000000000000000000008152508160009081620000949190620003b6565b508060019081620000a69190620003b6565b505050604051620000b7906200012e565b620000c2906200054e565b604051809103906000f080158015620000df573d6000803e3d6000fd5b50600760006101000a81548173ffffffffffffffffffffffffffffffffffffffff021916908373ffffffffffffffffffffffffffffffffffffffff160217905550600060088190555062000585565b61164080620034d883390190565b600081519050919050565b7f4e487b7100000000000000000000000000000000000000000000000000000000600052604160045260246000fd5b7f4e487b7100000000000000000000000000000000000000000000000000000000600052602260045260246000fd5b60006002820490506001821680620001be57607f821691505b602082108103620001d457620001d362000176565b5b50919050565b60008190508160005260206000209050919050565b60006020601f8301049050919050565b600082821b905092915050565b6000600883026200023e7fffffffffffffffffffffffffffffffffffffffffffffffffffffffffffffffff82620001ff565b6200024a8683620001ff565b95508019841693508086168417925050509392505050565b6000819050919050565b6000819050919050565b600062000297620002916200028b8462000262565b6200026c565b62000262565b9050919050565b6000819050919050565b620002b38362000276565b620002cb620002c2826200029e565b8484546200020c565b825550505050565b600090565b620002e2620002d3565b620002ef818484620002a8565b505050565b5b8181101562000317576200030b600082620002d8565b600181019050620002f5565b5050565b601f82111562000366576200033081620001da565b6200033b84620001ef565b810160208510156200034b578190505b620003636200035a85620001ef565b830182620002f4565b50505b505050565b600082821c905092915050565b60006200038b600019846008026200036b565b1980831691505092915050565b6000620003a6838362000378565b9150826002028217905092915050565b620003c1826200013c565b67ffffffffffffffff811115620003dd57620003dc62000147565b5b620003e98254620001a5565b620003f68282856200031b565b600060209050601f8311600181146200042e576000841562000419578287015190505b62000425858262000398565b86555062000495565b601f1984166200043e86620001da565b60005b82811015620004685784890151825560018201915060208501945060208101905062000441565b8683101562000488578489015162000484601f89168262000378565b8355505b6001600288020188555050505b505050505050565b600082825260208201905092915050565b7f434152544f4b454e000000000000000000000000000000000000000000000000600082015250565b6000620004e66008836200049d565b9150620004f382620004ae565b602082019050919050565b7f4a46000000000000000000000000000000000000000000000000000000000000600082015250565b6000620005366002836200049d565b91506200054382620004fe565b602082019050919050565b600060408201905081810360008301526200056981620004d7565b905081810360208301526200057e8162000527565b9050919050565b612f4380620005956000396000f3fe608060405234801561001057600080fd5b50600436106101a95760003560e01c806391f6975e116100f9578063c87b56dd11610097578063e4dc149111610071578063e4dc1491146104d1578063e985e9c514610501578063eabc098214610531578063f7746e361461054d576101a9565b8063c87b56dd14610465578063cad60c3614610495578063dafd84be146104b3576101a9565b8063aa9d0099116100d3578063aa9d0099146103dc578063b88d4fde146103fa578063ba3cfd6914610416578063be37980214610447576101a9565b806391f6975e1461039857806395d89b41146103a2578063a22cb465146103c0576101a9565b806342842e0e116101665780636d3739c4116101405780636d3739c4146102ea57806370a08231146103085780637bdafbf8146103385780638944e90114610368576101a9565b806342842e0e14610280578063493d3bb11461029c5780636352211e146102ba576101a9565b806301ffc9a7146101ae57806306fdde03146101de578063081812fc146101fc578063095ea7b31461022c57806317f956e01461024857806323b872dd14610264575b600080fd5b6101c860048036038101906101c39190612282565b61057f565b6040516101d591906122ca565b60405180910390f35b6101e6610661565b6040516101f39190612375565b60405180910390f35b610216600480360381019061021191906123cd565b6106f3565b604051610223919061243b565b60405180910390f35b61024660048036038101906102419190612482565b61070f565b005b610262600480360381019061025d91906123cd565b610725565b005b61027e600480360381019061027991906124c2565b610a41565b005b61029a600480360381019061029591906124c2565b610b43565b005b6102a4610b63565b6040516102b19190612524565b60405180910390f35b6102d460048036038101906102cf91906123cd565b610b69565b6040516102e1919061243b565b60405180910390f35b6102f2610b7b565b6040516102ff919061259e565b60405180910390f35b610322600480360381019061031d91906125b9565b610ba1565b60405161032f9190612524565b60405180910390f35b610352600480360381019061034d91906123cd565b610c5b565b60405161035f91906122ca565b60405180910390f35b610382600480360381019061037d91906123cd565b610cca565b60405161038f919061243b565b60405180910390f35b6103a0610d52565b005b6103aa610e65565b6040516103b79190612375565b60405180910390f35b6103da60048036038101906103d59190612612565b610ef7565b005b6103e4610f0d565b6040516103f19190612710565b60405180910390f35b610414600480360381019061040f9190612867565b610ff5565b005b610430600480360381019061042b91906123cd565b611012565b60405161043e9291906128ea565b60405180910390f35b61044f6110fc565b60405161045c9190612524565b60405180910390f35b61047f600480360381019061047a91906123cd565b611106565b60405161048c9190612375565b60405180910390f35b61049d61116f565b6040516104aa9190612710565b60405180910390f35b6104bb611229565b6040516104c89190612524565b60405180910390f35b6104eb60048036038101906104e691906123cd565b61122f565b6040516104f891906122ca565b60405180910390f35b61051b60048036038101906105169190612913565b61129e565b60405161052891906122ca565b60405180910390f35b61054b600480360381019061054691906123cd565b611332565b005b610567600480360381019061056291906123cd565b611564565b60405161057693929190612953565b60405180910390f35b60007f80ac58cd000000000000000000000000000000000000000000000000000000007bffffffffffffffffffffffffffffffffffffffffffffffffffffffff1916827bffffffffffffffffffffffffffffffffffffffffffffffffffffffff1916148061064a57507f5b5e139f000000000000000000000000000000000000000000000000000000007bffffffffffffffffffffffffffffffffffffffffffffffffffffffff1916827bffffffffffffffffffffffffffffffffffffffffffffffffffffffff1916145b8061065a5750610659826115ce565b5b9050919050565b606060008054610670906129b9565b80601f016020809104026020016040519081016040528092919081815260200182805461069c906129b9565b80156106e95780601f106106be576101008083540402835291602001916106e9565b820191906000526020600020905b8154815290600101906020018083116106cc57829003601f168201915b5050505050905090565b60006106fe82611638565b50610708826116c0565b9050919050565b610721828261071c6116fd565b611705565b5050565b6006600082815260200190815260200160002060010160009054906101000a900473ffffffffffffffffffffffffffffffffffffffff1673ffffffffffffffffffffffffffffffffffffffff163373ffffffffffffffffffffffffffffffffffffffff16146107c9576040517f08c379a00000000000000000000000000000000000000000000000000000000081526004016107c090612a36565b60405180910390fd5b60006009549050806006600084815260200190815260200160002060020154426107f39190612a85565b11156108e15760066000838152602001908152602001600020600201544261081b9190612a85565b9050600760009054906101000a900473ffffffffffffffffffffffffffffffffffffffff1673ffffffffffffffffffffffffffffffffffffffff166323b872dd3330670de0b6b3a7640000600954866108749190612a85565b61087e9190612ab9565b6040518463ffffffff1660e01b815260040161089c93929190612953565b6020604051808303816000875af11580156108bb573d6000803e3d6000fd5b505050506040513d601f19601f820116820180604052508101906108df9190612b10565b505b600760009054906101000a900473ffffffffffffffffffffffffffffffffffffffff1673ffffffffffffffffffffffffffffffffffffffff1663a9059cbb6006600085815260200190815260200160002060000160009054906101000a900473ffffffffffffffffffffffffffffffffffffffff16670de0b6b3a76400008461096a9190612ab9565b6040518363ffffffff1660e01b81526004016109879291906128ea565b6020604051808303816000875af11580156109a6573d6000803e3d6000fd5b505050506040513d601f19601f820116820180604052508101906109ca9190612b10565b5060006006600084815260200190815260200160002060010160006101000a81548173ffffffffffffffffffffffffffffffffffffffff021916908373ffffffffffffffffffffffffffffffffffffffff160217905550600060066000848152602001908152602001600020600201819055505050565b600073ffffffffffffffffffffffffffffffffffffffff168273ffffffffffffffffffffffffffffffffffffffff1603610ab35760006040517f64a0ae92000000000000000000000000000000000000000000000000000000008152600401610aaa919061243b565b60405180910390fd5b6000610ac78383610ac26116fd565b611717565b90508373ffffffffffffffffffffffffffffffffffffffff168173ffffffffffffffffffffffffffffffffffffffff1614610b3d578382826040517f64283d7b000000000000000000000000000000000000000000000000000000008152600401610b3493929190612b3d565b60405180910390fd5b50505050565b610b5e83838360405180602001604052806000815250610ff5565b505050565b60095481565b6000610b7482611638565b9050919050565b600760009054906101000a900473ffffffffffffffffffffffffffffffffffffffff1681565b60008073ffffffffffffffffffffffffffffffffffffffff168273ffffffffffffffffffffffffffffffffffffffff1603610c145760006040517f89c62b64000000000000000000000000000000000000000000000000000000008152600401610c0b919061243b565b60405180910390fd5b600360008373ffffffffffffffffffffffffffffffffffffffff1673ffffffffffffffffffffffffffffffffffffffff168152602001908152602001600020549050919050565b60008073ffffffffffffffffffffffffffffffffffffffff166006600084815260200190815260200160002060010160009054906101000a900473ffffffffffffffffffffffffffffffffffffffff1673ffffffffffffffffffffffffffffffffffffffff1614159050919050565b6000610cd58261122f565b610d14576040517f08c379a0000000000000000000000000000000000000000000000000000000008152600401610d0b90612bc0565b60405180910390fd5b6006600083815260200190815260200160002060000160009054906101000a900473ffffffffffffffffffffffffffffffffffffffff169050919050565b60086000815480929190610d6590612be0565b919050555060405180606001604052803373ffffffffffffffffffffffffffffffffffffffff168152602001600073ffffffffffffffffffffffffffffffffffffffff168152602001600081525060066000600854815260200190815260200160002060008201518160000160006101000a81548173ffffffffffffffffffffffffffffffffffffffff021916908373ffffffffffffffffffffffffffffffffffffffff16021790555060208201518160010160006101000a81548173ffffffffffffffffffffffffffffffffffffffff021916908373ffffffffffffffffffffffffffffffffffffffff16021790555060408201518160020155905050565b606060018054610e74906129b9565b80601f0160208091040260200160405190810160405280929190818152602001828054610ea0906129b9565b8015610eed5780601f10610ec257610100808354040283529160200191610eed565b820191906000526020600020905b815481529060010190602001808311610ed057829003601f168201915b5050505050905090565b610f09610f026116fd565b8383611931565b5050565b6060600060085467ffffffffffffffff811115610f2d57610f2c61273c565b5b604051908082528060200260200182016040528015610f5b5781602001602082028036833780820191505090505b509050600080600190505b6008548111610fec573373ffffffffffffffffffffffffffffffffffffffff16610f8f82610cca565b73ffffffffffffffffffffffffffffffffffffffff1603610fd95780838381518110610fbe57610fbd612c28565b5b6020026020010181815250508180610fd590612be0565b9250505b8080610fe490612be0565b915050610f66565b50819250505090565b611000848484610a41565b61100c84848484611aa0565b50505050565b60008061101e8361122f565b61105d576040517f08c379a000000000000000000000000000000000000000000000000000000000815260040161105490612bc0565b60405180910390fd5b61106683610c5b565b6110a5576040517f08c379a000000000000000000000000000000000000000000000000000000000815260040161109c90612ca3565b60405180910390fd5b6006600084815260200190815260200160002060010160009054906101000a900473ffffffffffffffffffffffffffffffffffffffff16600660008581526020019081526020016000206002015491509150915091565b6000600854905090565b606061111182611638565b50600061111c611c57565b9050600081511161113c5760405180602001604052806000815250611167565b8061114684611c6e565b604051602001611157929190612cff565b6040516020818303038152906040525b915050919050565b6060600060085467ffffffffffffffff81111561118f5761118e61273c565b5b6040519080825280602002602001820160405280156111bd5781602001602082028036833780820191505090505b509050600080600190505b6008548111611220576111da81610c5b565b61120d57808383815181106111f2576111f1612c28565b5b602002602001018181525050818061120990612be0565b9250505b808061121890612be0565b9150506111c8565b50819250505090565b60085481565b60008073ffffffffffffffffffffffffffffffffffffffff166006600084815260200190815260200160002060000160009054906101000a900473ffffffffffffffffffffffffffffffffffffffff1673ffffffffffffffffffffffffffffffffffffffff1614159050919050565b6000600560008473ffffffffffffffffffffffffffffffffffffffff1673ffffffffffffffffffffffffffffffffffffffff16815260200190815260200160002060008373ffffffffffffffffffffffffffffffffffffffff1673ffffffffffffffffffffffffffffffffffffffff16815260200190815260200160002060009054906101000a900460ff16905092915050565b61133b8161122f565b61137a576040517f08c379a000000000000000000000000000000000000000000000000000000000815260040161137190612bc0565b60405180910390fd5b61138381610c5b565b156113c3576040517f08c379a00000000000000000000000000000000000000000000000000000000081526004016113ba90612d6f565b60405180910390fd5b3373ffffffffffffffffffffffffffffffffffffffff166113e382610cca565b73ffffffffffffffffffffffffffffffffffffffff1603611439576040517f08c379a000000000000000000000000000000000000000000000000000000000815260040161143090612ddb565b60405180910390fd5b336006600083815260200190815260200160002060010160006101000a81548173ffffffffffffffffffffffffffffffffffffffff021916908373ffffffffffffffffffffffffffffffffffffffff160217905550426006600083815260200190815260200160002060020181905550600760009054906101000a900473ffffffffffffffffffffffffffffffffffffffff1673ffffffffffffffffffffffffffffffffffffffff166323b872dd3330670de0b6b3a76400006009546114ff9190612ab9565b6040518463ffffffff1660e01b815260040161151d93929190612953565b6020604051808303816000875af115801561153c573d6000803e3d6000fd5b505050506040513d601f19601f820116820180604052508101906115609190612b10565b5050565b60066020528060005260406000206000915090508060000160009054906101000a900473ffffffffffffffffffffffffffffffffffffffff16908060010160009054906101000a900473ffffffffffffffffffffffffffffffffffffffff16908060020154905083565b60007f01ffc9a7000000000000000000000000000000000000000000000000000000007bffffffffffffffffffffffffffffffffffffffffffffffffffffffff1916827bffffffffffffffffffffffffffffffffffffffffffffffffffffffff1916149050919050565b60008061164483611d3c565b9050600073ffffffffffffffffffffffffffffffffffffffff168173ffffffffffffffffffffffffffffffffffffffff16036116b757826040517f7e2732890000000000000000000000000000000000000000000000000000000081526004016116ae9190612524565b60405180910390fd5b80915050919050565b60006004600083815260200190815260200160002060009054906101000a900473ffffffffffffffffffffffffffffffffffffffff169050919050565b600033905090565b6117128383836001611d79565b505050565b60008061172384611d3c565b9050600073ffffffffffffffffffffffffffffffffffffffff168373ffffffffffffffffffffffffffffffffffffffff161461176557611764818486611f3e565b5b600073ffffffffffffffffffffffffffffffffffffffff168173ffffffffffffffffffffffffffffffffffffffff16146117f6576117a7600085600080611d79565b6001600360008373ffffffffffffffffffffffffffffffffffffffff1673ffffffffffffffffffffffffffffffffffffffff168152602001908152602001600020600082825403925050819055505b600073ffffffffffffffffffffffffffffffffffffffff168573ffffffffffffffffffffffffffffffffffffffff1614611879576001600360008773ffffffffffffffffffffffffffffffffffffffff1673ffffffffffffffffffffffffffffffffffffffff168152602001908152602001600020600082825401925050819055505b846002600086815260200190815260200160002060006101000a81548173ffffffffffffffffffffffffffffffffffffffff021916908373ffffffffffffffffffffffffffffffffffffffff160217905550838573ffffffffffffffffffffffffffffffffffffffff168273ffffffffffffffffffffffffffffffffffffffff167fddf252ad1be2c89b69c2b068fc378daa952ba7f163c4a11628f55a4df523b3ef60405160405180910390a4809150509392505050565b600073ffffffffffffffffffffffffffffffffffffffff168273ffffffffffffffffffffffffffffffffffffffff16036119a257816040517f5b08ba18000000000000000000000000000000000000000000000000000000008152600401611999919061243b565b60405180910390fd5b80600560008573ffffffffffffffffffffffffffffffffffffffff1673ffffffffffffffffffffffffffffffffffffffff16815260200190815260200160002060008473ffffffffffffffffffffffffffffffffffffffff1673ffffffffffffffffffffffffffffffffffffffff16815260200190815260200160002060006101000a81548160ff0219169083151502179055508173ffffffffffffffffffffffffffffffffffffffff168373ffffffffffffffffffffffffffffffffffffffff167f17307eab39ab6107e8899845ad3d59bd9653f200f220920489ca2b5937696c3183604051611a9391906122ca565b60405180910390a3505050565b60008373ffffffffffffffffffffffffffffffffffffffff163b1115611c51578273ffffffffffffffffffffffffffffffffffffffff1663150b7a02611ae46116fd565b8685856040518563ffffffff1660e01b8152600401611b069493929190612e50565b6020604051808303816000875af1925050508015611b4257506040513d601f19601f82011682018060405250810190611b3f9190612eb1565b60015b611bc6573d8060008114611b72576040519150601f19603f3d011682016040523d82523d6000602084013e611b77565b606091505b506000815103611bbe57836040517f64a0ae92000000000000000000000000000000000000000000000000000000008152600401611bb5919061243b565b60405180910390fd5b805181602001fd5b63150b7a0260e01b7bffffffffffffffffffffffffffffffffffffffffffffffffffffffff1916817bffffffffffffffffffffffffffffffffffffffffffffffffffffffff191614611c4f57836040517f64a0ae92000000000000000000000000000000000000000000000000000000008152600401611c46919061243b565b60405180910390fd5b505b50505050565b606060405180602001604052806000815250905090565b606060006001611c7d84612002565b01905060008167ffffffffffffffff811115611c9c57611c9b61273c565b5b6040519080825280601f01601f191660200182016040528015611cce5781602001600182028036833780820191505090505b509050600082602001820190505b600115611d31578080600190039150507f3031323334353637383961626364656600000000000000000000000000000000600a86061a8153600a8581611d2557611d24612ede565b5b04945060008503611cdc575b819350505050919050565b60006002600083815260200190815260200160002060009054906101000a900473ffffffffffffffffffffffffffffffffffffffff169050919050565b8080611db25750600073ffffffffffffffffffffffffffffffffffffffff168273ffffffffffffffffffffffffffffffffffffffff1614155b15611ee6576000611dc284611638565b9050600073ffffffffffffffffffffffffffffffffffffffff168373ffffffffffffffffffffffffffffffffffffffff1614158015611e2d57508273ffffffffffffffffffffffffffffffffffffffff168173ffffffffffffffffffffffffffffffffffffffff1614155b8015611e405750611e3e818461129e565b155b15611e8257826040517fa9fbf51f000000000000000000000000000000000000000000000000000000008152600401611e79919061243b565b60405180910390fd5b8115611ee457838573ffffffffffffffffffffffffffffffffffffffff168273ffffffffffffffffffffffffffffffffffffffff167f8c5be1e5ebec7d5bd14f71427d1e84f3dd0314c0f7b2291e5b200ac8c7c3b92560405160405180910390a45b505b836004600085815260200190815260200160002060006101000a81548173ffffffffffffffffffffffffffffffffffffffff021916908373ffffffffffffffffffffffffffffffffffffffff16021790555050505050565b611f49838383612155565b611ffd57600073ffffffffffffffffffffffffffffffffffffffff168373ffffffffffffffffffffffffffffffffffffffff1603611fbe57806040517f7e273289000000000000000000000000000000000000000000000000000000008152600401611fb59190612524565b60405180910390fd5b81816040517f177e802f000000000000000000000000000000000000000000000000000000008152600401611ff49291906128ea565b60405180910390fd5b505050565b600080600090507a184f03e93ff9f4daa797ed6e38ed64bf6a1f0100000000000000008310612060577a184f03e93ff9f4daa797ed6e38ed64bf6a1f010000000000000000838161205657612055612ede565b5b0492506040810190505b6d04ee2d6d415b85acef8100000000831061209d576d04ee2d6d415b85acef8100000000838161209357612092612ede565b5b0492506020810190505b662386f26fc1000083106120cc57662386f26fc1000083816120c2576120c1612ede565b5b0492506010810190505b6305f5e10083106120f5576305f5e10083816120eb576120ea612ede565b5b0492506008810190505b612710831061211a5761271083816121105761210f612ede565b5b0492506004810190505b6064831061213d576064838161213357612132612ede565b5b0492506002810190505b600a831061214c576001810190505b80915050919050565b60008073ffffffffffffffffffffffffffffffffffffffff168373ffffffffffffffffffffffffffffffffffffffff161415801561220d57508273ffffffffffffffffffffffffffffffffffffffff168473ffffffffffffffffffffffffffffffffffffffff1614806121ce57506121cd848461129e565b5b8061220c57508273ffffffffffffffffffffffffffffffffffffffff166121f4836116c0565b73ffffffffffffffffffffffffffffffffffffffff16145b5b90509392505050565b6000604051905090565b600080fd5b600080fd5b60007fffffffff0000000000000000000000000000000000000000000000000000000082169050919050565b61225f8161222a565b811461226a57600080fd5b50565b60008135905061227c81612256565b92915050565b60006020828403121561229857612297612220565b5b60006122a68482850161226d565b91505092915050565b60008115159050919050565b6122c4816122af565b82525050565b60006020820190506122df60008301846122bb565b92915050565b600081519050919050565b600082825260208201905092915050565b60005b8381101561231f578082015181840152602081019050612304565b60008484015250505050565b6000601f19601f8301169050919050565b6000612347826122e5565b61235181856122f0565b9350612361818560208601612301565b61236a8161232b565b840191505092915050565b6000602082019050818103600083015261238f818461233c565b905092915050565b6000819050919050565b6123aa81612397565b81146123b557600080fd5b50565b6000813590506123c7816123a1565b92915050565b6000602082840312156123e3576123e2612220565b5b60006123f1848285016123b8565b91505092915050565b600073ffffffffffffffffffffffffffffffffffffffff82169050919050565b6000612425826123fa565b9050919050565b6124358161241a565b82525050565b6000602082019050612450600083018461242c565b92915050565b61245f8161241a565b811461246a57600080fd5b50565b60008135905061247c81612456565b92915050565b6000806040838503121561249957612498612220565b5b60006124a78582860161246d565b92505060206124b8858286016123b8565b9150509250929050565b6000806000606084860312156124db576124da612220565b5b60006124e98682870161246d565b93505060206124fa8682870161246d565b925050604061250b868287016123b8565b9150509250925092565b61251e81612397565b82525050565b60006020820190506125396000830184612515565b92915050565b6000819050919050565b600061256461255f61255a846123fa565b61253f565b6123fa565b9050919050565b600061257682612549565b9050919050565b60006125888261256b565b9050919050565b6125988161257d565b82525050565b60006020820190506125b3600083018461258f565b92915050565b6000602082840312156125cf576125ce612220565b5b60006125dd8482850161246d565b91505092915050565b6125ef816122af565b81146125fa57600080fd5b50565b60008135905061260c816125e6565b92915050565b6000806040838503121561262957612628612220565b5b60006126378582860161246d565b9250506020612648858286016125fd565b9150509250929050565b600081519050919050565b600082825260208201905092915050565b6000819050602082019050919050565b61268781612397565b82525050565b6000612699838361267e565b60208301905092915050565b6000602082019050919050565b60006126bd82612652565b6126c7818561265d565b93506126d28361266e565b8060005b838110156127035781516126ea888261268d565b97506126f5836126a5565b9250506001810190506126d6565b5085935050505092915050565b6000602082019050818103600083015261272a81846126b2565b905092915050565b600080fd5b600080fd5b7f4e487b7100000000000000000000000000000000000000000000000000000000600052604160045260246000fd5b6127748261232b565b810181811067ffffffffffffffff821117156127935761279261273c565b5b80604052505050565b60006127a6612216565b90506127b2828261276b565b919050565b600067ffffffffffffffff8211156127d2576127d161273c565b5b6127db8261232b565b9050602081019050919050565b82818337600083830152505050565b600061280a612805846127b7565b61279c565b90508281526020810184848401111561282657612825612737565b5b6128318482856127e8565b509392505050565b600082601f83011261284e5761284d612732565b5b813561285e8482602086016127f7565b91505092915050565b6000806000806080858703121561288157612880612220565b5b600061288f8782880161246d565b94505060206128a08782880161246d565b93505060406128b1878288016123b8565b925050606085013567ffffffffffffffff8111156128d2576128d1612225565b5b6128de87828801612839565b91505092959194509250565b60006040820190506128ff600083018561242c565b61290c6020830184612515565b9392505050565b6000806040838503121561292a57612929612220565b5b60006129388582860161246d565b92505060206129498582860161246d565b9150509250929050565b6000606082019050612968600083018661242c565b612975602083018561242c565b6129826040830184612515565b949350505050565b7f4e487b7100000000000000000000000000000000000000000000000000000000600052602260045260246000fd5b600060028204905060018216806129d157607f821691505b6020821081036129e4576129e361298a565b5b50919050565b7f596f7520617265206e6f742074686520626f72726f7765722100000000000000600082015250565b6000612a206019836122f0565b9150612a2b826129ea565b602082019050919050565b60006020820190508181036000830152612a4f81612a13565b9050919050565b7f4e487b7100000000000000000000000000000000000000000000000000000000600052601160045260246000fd5b6000612a9082612397565b9150612a9b83612397565b9250828203905081811115612ab357612ab2612a56565b5b92915050565b6000612ac482612397565b9150612acf83612397565b9250828202612add81612397565b91508282048414831517612af457612af3612a56565b5b5092915050565b600081519050612b0a816125e6565b92915050565b600060208284031215612b2657612b25612220565b5b6000612b3484828501612afb565b91505092915050565b6000606082019050612b52600083018661242c565b612b5f6020830185612515565b612b6c604083018461242c565b949350505050565b7f43617220646f6573206e6f742065786973742100000000000000000000000000600082015250565b6000612baa6013836122f0565b9150612bb582612b74565b602082019050919050565b60006020820190508181036000830152612bd981612b9d565b9050919050565b6000612beb82612397565b91507fffffffffffffffffffffffffffffffffffffffffffffffffffffffffffffffff8203612c1d57612c1c612a56565b5b600182019050919050565b7f4e487b7100000000000000000000000000000000000000000000000000000000600052603260045260246000fd5b7f43617220686173206e6f74206265656e20626f72726f77656421000000000000600082015250565b6000612c8d601a836122f0565b9150612c9882612c57565b602082019050919050565b60006020820190508181036000830152612cbc81612c80565b9050919050565b600081905092915050565b6000612cd9826122e5565b612ce38185612cc3565b9350612cf3818560208601612301565b80840191505092915050565b6000612d0b8285612cce565b9150612d178284612cce565b91508190509392505050565b7f43617220686173206265656e20626f72726f7765642100000000000000000000600082015250565b6000612d596016836122f0565b9150612d6482612d23565b602082019050919050565b60006020820190508181036000830152612d8881612d4c565b9050919050565b7f596f752061726520746865206f776e6572206f66207468652063617221000000600082015250565b6000612dc5601d836122f0565b9150612dd082612d8f565b602082019050919050565b60006020820190508181036000830152612df481612db8565b9050919050565b600081519050919050565b600082825260208201905092915050565b6000612e2282612dfb565b612e2c8185612e06565b9350612e3c818560208601612301565b612e458161232b565b840191505092915050565b6000608082019050612e65600083018761242c565b612e72602083018661242c565b612e7f6040830185612515565b8181036060830152612e918184612e17565b905095945050505050565b600081519050612eab81612256565b92915050565b600060208284031215612ec757612ec6612220565b5b6000612ed584828501612e9c565b91505092915050565b7f4e487b7100000000000000000000000000000000000000000000000000000000600052601260045260246000fdfea2646970667358221220177175415baceb47e3bc4ea5eebcb725c41a3b66e9216b3126302c86ef3d7d1f64736f6c6343000814003360806040523480156200001157600080fd5b5060405162001640380380620016408339818101604052810190620000379190620001fa565b818181600390816200004a9190620004ca565b5080600490816200005c9190620004ca565b5050505050620005b1565b6000604051905090565b600080fd5b600080fd5b600080fd5b600080fd5b6000601f19601f8301169050919050565b7f4e487b7100000000000000000000000000000000000000000000000000000000600052604160045260246000fd5b620000d08262000085565b810181811067ffffffffffffffff82111715620000f257620000f162000096565b5b80604052505050565b60006200010762000067565b9050620001158282620000c5565b919050565b600067ffffffffffffffff82111562000138576200013762000096565b5b620001438262000085565b9050602081019050919050565b60005b838110156200017057808201518184015260208101905062000153565b60008484015250505050565b6000620001936200018d846200011a565b620000fb565b905082815260208101848484011115620001b257620001b162000080565b5b620001bf84828562000150565b509392505050565b600082601f830112620001df57620001de6200007b565b5b8151620001f18482602086016200017c565b91505092915050565b6000806040838503121562000214576200021362000071565b5b600083015167ffffffffffffffff81111562000235576200023462000076565b5b6200024385828601620001c7565b925050602083015167ffffffffffffffff81111562000267576200026662000076565b5b6200027585828601620001c7565b9150509250929050565b600081519050919050565b7f4e487b7100000000000000000000000000000000000000000000000000000000600052602260045260246000fd5b60006002820490506001821680620002d257607f821691505b602082108103620002e857620002e76200028a565b5b50919050565b60008190508160005260206000209050919050565b60006020601f8301049050919050565b600082821b905092915050565b600060088302620003527fffffffffffffffffffffffffffffffffffffffffffffffffffffffffffffffff8262000313565b6200035e868362000313565b95508019841693508086168417925050509392505050565b6000819050919050565b6000819050919050565b6000620003ab620003a56200039f8462000376565b62000380565b62000376565b9050919050565b6000819050919050565b620003c7836200038a565b620003df620003d682620003b2565b84845462000320565b825550505050565b600090565b620003f6620003e7565b62000403818484620003bc565b505050565b5b818110156200042b576200041f600082620003ec565b60018101905062000409565b5050565b601f8211156200047a576200044481620002ee565b6200044f8462000303565b810160208510156200045f578190505b620004776200046e8562000303565b83018262000408565b50505b505050565b600082821c905092915050565b60006200049f600019846008026200047f565b1980831691505092915050565b6000620004ba83836200048c565b9150826002028217905092915050565b620004d5826200027f565b67ffffffffffffffff811115620004f157620004f062000096565b5b620004fd8254620002b9565b6200050a8282856200042f565b600060209050601f8311600181146200054257600084156200052d578287015190505b620005398582620004ac565b865550620005a9565b601f1984166200055286620002ee565b60005b828110156200057c5784890151825560018201915060208501945060208101905062000555565b868310156200059c578489015162000598601f8916826200048c565b8355505b6001600288020188555050505b505050505050565b61107f80620005c16000396000f3fe608060405234801561001057600080fd5b506004361061009e5760003560e01c80633884d635116100665780633884d6351461015d57806370a082311461016757806395d89b4114610197578063a9059cbb146101b5578063dd62ed3e146101e55761009e565b806306fdde03146100a3578063095ea7b3146100c157806318160ddd146100f157806323b872dd1461010f578063313ce5671461013f575b600080fd5b6100ab610215565b6040516100b89190610c41565b60405180910390f35b6100db60048036038101906100d69190610cfc565b6102a7565b6040516100e89190610d57565b60405180910390f35b6100f96102ca565b6040516101069190610d81565b60405180910390f35b61012960048036038101906101249190610d9c565b6102d4565b6040516101369190610d57565b60405180910390f35b610147610303565b6040516101549190610e0b565b60405180910390f35b61016561030c565b005b610181600480360381019061017c9190610e26565b61040d565b60405161018e9190610d81565b60405180910390f35b61019f610455565b6040516101ac9190610c41565b60405180910390f35b6101cf60048036038101906101ca9190610cfc565b6104e7565b6040516101dc9190610d57565b60405180910390f35b6101ff60048036038101906101fa9190610e53565b61050a565b60405161020c9190610d81565b60405180910390f35b60606003805461022490610ec2565b80601f016020809104026020016040519081016040528092919081815260200182805461025090610ec2565b801561029d5780601f106102725761010080835404028352916020019161029d565b820191906000526020600020905b81548152906001019060200180831161028057829003601f168201915b5050505050905090565b6000806102b2610591565b90506102bf818585610599565b600191505092915050565b6000600254905090565b6000806102df610591565b90506102ec8582856105ab565b6102f785858561063f565b60019150509392505050565b60006012905090565b60001515600560003373ffffffffffffffffffffffffffffffffffffffff1673ffffffffffffffffffffffffffffffffffffffff16815260200190815260200160002060009054906101000a900460ff1615151461039f576040517f08c379a000000000000000000000000000000000000000000000000000000000815260040161039690610f65565b60405180910390fd5b6103b33369021e19e0c9bab2400000610733565b6001600560003373ffffffffffffffffffffffffffffffffffffffff1673ffffffffffffffffffffffffffffffffffffffff16815260200190815260200160002060006101000a81548160ff021916908315150217905550565b60008060008373ffffffffffffffffffffffffffffffffffffffff1673ffffffffffffffffffffffffffffffffffffffff168152602001908152602001600020549050919050565b60606004805461046490610ec2565b80601f016020809104026020016040519081016040528092919081815260200182805461049090610ec2565b80156104dd5780601f106104b2576101008083540402835291602001916104dd565b820191906000526020600020905b8154815290600101906020018083116104c057829003601f168201915b5050505050905090565b6000806104f2610591565b90506104ff81858561063f565b600191505092915050565b6000600160008473ffffffffffffffffffffffffffffffffffffffff1673ffffffffffffffffffffffffffffffffffffffff16815260200190815260200160002060008373ffffffffffffffffffffffffffffffffffffffff1673ffffffffffffffffffffffffffffffffffffffff16815260200190815260200160002054905092915050565b600033905090565b6105a683838360016107b5565b505050565b60006105b7848461050a565b90507fffffffffffffffffffffffffffffffffffffffffffffffffffffffffffffffff81146106395781811015610629578281836040517ffb8f41b200000000000000000000000000000000000000000000000000000000815260040161062093929190610f94565b60405180910390fd5b610638848484840360006107b5565b5b50505050565b600073ffffffffffffffffffffffffffffffffffffffff168373ffffffffffffffffffffffffffffffffffffffff16036106b15760006040517f96c6fd1e0000000000000000000000000000000000000000000000000000000081526004016106a89190610fcb565b60405180910390fd5b600073ffffffffffffffffffffffffffffffffffffffff168273ffffffffffffffffffffffffffffffffffffffff16036107235760006040517fec442f0500000000000000000000000000000000000000000000000000000000815260040161071a9190610fcb565b60405180910390fd5b61072e83838361098c565b505050565b600073ffffffffffffffffffffffffffffffffffffffff168273ffffffffffffffffffffffffffffffffffffffff16036107a55760006040517fec442f0500000000000000000000000000000000000000000000000000000000815260040161079c9190610fcb565b60405180910390fd5b6107b16000838361098c565b5050565b600073ffffffffffffffffffffffffffffffffffffffff168473ffffffffffffffffffffffffffffffffffffffff16036108275760006040517fe602df0500000000000000000000000000000000000000000000000000000000815260040161081e9190610fcb565b60405180910390fd5b600073ffffffffffffffffffffffffffffffffffffffff168373ffffffffffffffffffffffffffffffffffffffff16036108995760006040517f94280d620000000000000000000000000000000000000000000000000000000081526004016108909190610fcb565b60405180910390fd5b81600160008673ffffffffffffffffffffffffffffffffffffffff1673ffffffffffffffffffffffffffffffffffffffff16815260200190815260200160002060008573ffffffffffffffffffffffffffffffffffffffff1673ffffffffffffffffffffffffffffffffffffffff168152602001908152602001600020819055508015610986578273ffffffffffffffffffffffffffffffffffffffff168473ffffffffffffffffffffffffffffffffffffffff167f8c5be1e5ebec7d5bd14f71427d1e84f3dd0314c0f7b2291e5b200ac8c7c3b9258460405161097d9190610d81565b60405180910390a35b50505050565b600073ffffffffffffffffffffffffffffffffffffffff168373ffffffffffffffffffffffffffffffffffffffff16036109de5780600260008282546109d29190611015565b92505081905550610ab1565b60008060008573ffffffffffffffffffffffffffffffffffffffff1673ffffffffffffffffffffffffffffffffffffffff16815260200190815260200160002054905081811015610a6a578381836040517fe450d38c000000000000000000000000000000000000000000000000000000008152600401610a6193929190610f94565b60405180910390fd5b8181036000808673ffffffffffffffffffffffffffffffffffffffff1673ffffffffffffffffffffffffffffffffffffffff16815260200190815260200160002081905550505b600073ffffffffffffffffffffffffffffffffffffffff168273ffffffffffffffffffffffffffffffffffffffff1603610afa5780600260008282540392505081905550610b47565b806000808473ffffffffffffffffffffffffffffffffffffffff1673ffffffffffffffffffffffffffffffffffffffff168152602001908152602001600020600082825401925050819055505b8173ffffffffffffffffffffffffffffffffffffffff168373ffffffffffffffffffffffffffffffffffffffff167fddf252ad1be2c89b69c2b068fc378daa952ba7f163c4a11628f55a4df523b3ef83604051610ba49190610d81565b60405180910390a3505050565b600081519050919050565b600082825260208201905092915050565b60005b83811015610beb578082015181840152602081019050610bd0565b60008484015250505050565b6000601f19601f8301169050919050565b6000610c1382610bb1565b610c1d8185610bbc565b9350610c2d818560208601610bcd565b610c3681610bf7565b840191505092915050565b60006020820190508181036000830152610c5b8184610c08565b905092915050565b600080fd5b600073ffffffffffffffffffffffffffffffffffffffff82169050919050565b6000610c9382610c68565b9050919050565b610ca381610c88565b8114610cae57600080fd5b50565b600081359050610cc081610c9a565b92915050565b6000819050919050565b610cd981610cc6565b8114610ce457600080fd5b50565b600081359050610cf681610cd0565b92915050565b60008060408385031215610d1357610d12610c63565b5b6000610d2185828601610cb1565b9250506020610d3285828601610ce7565b9150509250929050565b60008115159050919050565b610d5181610d3c565b82525050565b6000602082019050610d6c6000830184610d48565b92915050565b610d7b81610cc6565b82525050565b6000602082019050610d966000830184610d72565b92915050565b600080600060608486031215610db557610db4610c63565b5b6000610dc386828701610cb1565b9350506020610dd486828701610cb1565b9250506040610de586828701610ce7565b9150509250925092565b600060ff82169050919050565b610e0581610def565b82525050565b6000602082019050610e206000830184610dfc565b92915050565b600060208284031215610e3c57610e3b610c63565b5b6000610e4a84828501610cb1565b91505092915050565b60008060408385031215610e6a57610e69610c63565b5b6000610e7885828601610cb1565b9250506020610e8985828601610cb1565b9150509250929050565b7f4e487b7100000000000000000000000000000000000000000000000000000000600052602260045260246000fd5b60006002820490506001821680610eda57607f821691505b602082108103610eed57610eec610e93565b5b50919050565b7f5468697320757365722068617320636c61696d65642061697264726f7020616c60008201527f7265616479000000000000000000000000000000000000000000000000000000602082015250565b6000610f4f602583610bbc565b9150610f5a82610ef3565b604082019050919050565b60006020820190508181036000830152610f7e81610f42565b9050919050565b610f8e81610c88565b82525050565b6000606082019050610fa96000830186610f85565b610fb66020830185610d72565b610fc36040830184610d72565b949350505050565b6000602082019050610fe06000830184610f85565b92915050565b7f4e487b7100000000000000000000000000000000000000000000000000000000600052601160045260246000fd5b600061102082610cc6565b915061102b83610cc6565b925082820190508082111561104357611042610fe6565b5b9291505056fea2646970667358221220b09118856273ba7e7c0b44f88c07e3bd2280997813315aad5f4339c3c743187e64736f6c63430008140033",
  "linkReferences": {},
  "deployedLinkReferences": {}
}